{"abi":[{"type":"constructor","inputs":[{"name":"maxTraversal","type":"uint256","internalType":"uint256"},{"name":"_defaultUnlockers","type":"address[]","internalType":"address[]"}],"stateMutability":"nonpayable"},{"type":"function","name":"MAX_TRAVERSAL","inputs":[],"outputs":[{"name":"","type":"uint256","internalType":"uint256"}],"stateMutability":"view"},{"type":"function","name":"create","inputs":[{"name":"chronicle","type":"address","internalType":"contract IMedian"},{"name":"lockWindow","type":"uint256","internalType":"uint256"},{"name":"maxAge","type":"uint256","internalType":"uint256"}],"outputs":[{"name":"oval","type":"address","internalType":"address"}],"stateMutability":"nonpayable"},{"type":"function","name":"defaultUnlockers","inputs":[{"name":"","type":"uint256","internalType":"uint256"}],"outputs":[{"name":"","type":"address","internalType":"address"}],"stateMutability":"view"},{"type":"function","name":"owner","inputs":[],"outputs":[{"name":"","type":"address","internalType":"address"}],"stateMutability":"view"},{"type":"function","name":"renounceOwnership","inputs":[],"outputs":[],"stateMutability":"nonpayable"},{"type":"function","name":"setDefaultUnlockers","inputs":[{"name":"_defaultUnlockers","type":"address[]","internalType":"address[]"}],"outputs":[],"stateMutability":"nonpayable"},{"type":"function","name":"transferOwnership","inputs":[{"name":"newOwner","type":"address","internalType":"address"}],"outputs":[],"stateMutability":"nonpayable"},{"type":"event","name":"DefaultUnlockersSet","inputs":[{"name":"defaultUnlockers","type":"address[]","indexed":false,"internalType":"address[]"}],"anonymous":false},{"type":"event","name":"OvalDeployed","inputs":[{"name":"deployer","type":"address","indexed":true,"internalType":"address"},{"name":"oval","type":"address","indexed":true,"internalType":"address"},{"name":"lockWindow","type":"uint256","indexed":true,"internalType":"uint256"},{"name":"maxTraversal","type":"uint256","indexed":false,"internalType":"uint256"},{"name":"owner","type":"address","indexed":false,"internalType":"address"},{"name":"unlockers","type":"address[]","indexed":false,"internalType":"address[]"}],"anonymous":false},{"type":"event","name":"OwnershipTransferred","inputs":[{"name":"previousOwner","type":"address","indexed":true,"internalType":"address"},{"name":"newOwner","type":"address","indexed":true,"internalType":"address"}],"anonymous":false}],"bytecode":{"object":"0x60a06040523480156200001157600080fd5b506040516200234c3803806200234c83398101604081905262000034916200026f565b81816200004133620000b1565b60008211620000975760405162461bcd60e51b815260206004820152601960248201527f4d61782074726176657273616c206d757374206265203e20300000000000000060448201526064015b60405180910390fd5b6080829052620000a78162000101565b505050506200039e565b600080546001600160a01b038381166001600160a01b0319831681178455604051919092169283917f8be0079c531659141344cd1fd0a4f28419497f9722a3daafe3b4186f6b6457e09190a35050565b6200010b6200015d565b805162000120906001906020840190620001bb565b507f53dcea6cd8a9fb42c53d0155aebceb09df1f90371ee9727c244f6557223bae16816040516200015291906200034f565b60405180910390a150565b6000546001600160a01b03163314620001b95760405162461bcd60e51b815260206004820181905260248201527f4f776e61626c653a2063616c6c6572206973206e6f7420746865206f776e657260448201526064016200008e565b565b82805482825590600052602060002090810192821562000213579160200282015b828111156200021357825182546001600160a01b0319166001600160a01b03909116178255602090920191600190910190620001dc565b506200022192915062000225565b5090565b5b8082111562000221576000815560010162000226565b634e487b7160e01b600052604160045260246000fd5b80516001600160a01b03811681146200026a57600080fd5b919050565b600080604083850312156200028357600080fd5b8251602080850151919350906001600160401b0380821115620002a557600080fd5b818601915086601f830112620002ba57600080fd5b815181811115620002cf57620002cf6200023c565b8060051b604051601f19603f83011681018181108582111715620002f757620002f76200023c565b6040529182528482019250838101850191898311156200031657600080fd5b938501935b828510156200033f576200032f8562000252565b845293850193928501926200031b565b8096505050505050509250929050565b6020808252825182820181905260009190848201906040850190845b81811015620003925783516001600160a01b0316835292840192918401916001016200036b565b50909695505050505050565b608051611f85620003c76000396000818160c60152818161016201526102030152611f856000f3fe60806040523480156200001157600080fd5b5060043610620000875760003560e01c8063715018a61162000062578063715018a6146200010e5780638da5cb5b146200011a578063a9d14058146200012c578063f2fde38b146200014357600080fd5b80635165da30146200008c5780635878157614620000c05780635c681d1e14620000f7575b600080fd5b620000a36200009d366004620004ca565b6200015a565b6040516001600160a01b0390911681526020015b60405180910390f35b620000e87f000000000000000000000000000000000000000000000000000000000000000081565b604051908152602001620000b7565b620000a36200010836600462000502565b62000257565b6200011862000282565b005b6000546001600160a01b0316620000a3565b620001186200013d36600462000544565b6200029a565b620001186200015436600462000617565b620002f6565b6000836001847f000000000000000000000000000000000000000000000000000000000000000085620001956000546001600160a01b031690565b604051620001a39062000425565b620001b49695949392919062000689565b604051809103906000f080158015620001d1573d6000803e3d6000fd5b509050826001600160a01b038216337f5e826bc8ad243559fc75cc77b0e474a2ec85df26aeb5cd6db9d9ed1740f39afa7f0000000000000000000000000000000000000000000000000000000000000000620002356000546001600160a01b031690565b60016040516200024893929190620006d5565b60405180910390a49392505050565b600181815481106200026857600080fd5b6000918252602090912001546001600160a01b0316905081565b6200028c62000379565b620002986000620003d5565b565b620002a462000379565b8051620002b990600190602084019062000433565b507f53dcea6cd8a9fb42c53d0155aebceb09df1f90371ee9727c244f6557223bae1681604051620002eb91906200070a565b60405180910390a150565b6200030062000379565b6001600160a01b0381166200036b5760405162461bcd60e51b815260206004820152602660248201527f4f776e61626c653a206e6577206f776e657220697320746865207a65726f206160448201526564647265737360d01b60648201526084015b60405180910390fd5b6200037681620003d5565b50565b6000546001600160a01b03163314620002985760405162461bcd60e51b815260206004820181905260248201527f4f776e61626c653a2063616c6c6572206973206e6f7420746865206f776e6572604482015260640162000362565b600080546001600160a01b038381166001600160a01b0319831681178455604051919092169283917f8be0079c531659141344cd1fd0a4f28419497f9722a3daafe3b4186f6b6457e09190a35050565b6117f6806200075a83390190565b8280548282559060005260206000209081019282156200048b579160200282015b828111156200048b57825182546001600160a01b0319166001600160a01b0390911617825560209092019160019091019062000454565b50620004999291506200049d565b5090565b5b808211156200049957600081556001016200049e565b6001600160a01b03811681146200037657600080fd5b600080600060608486031215620004e057600080fd5b8335620004ed81620004b4565b95602085013595506040909401359392505050565b6000602082840312156200051557600080fd5b5035919050565b634e487b7160e01b600052604160045260246000fd5b80356200053f81620004b4565b919050565b600060208083850312156200055857600080fd5b823567ffffffffffffffff808211156200057157600080fd5b818501915085601f8301126200058657600080fd5b8135818111156200059b576200059b6200051c565b8060051b604051601f19603f83011681018181108582111715620005c357620005c36200051c565b604052918252848201925083810185019188831115620005e257600080fd5b938501935b828510156200060b57620005fb8562000532565b84529385019392850192620005e7565b98975050505050505050565b6000602082840312156200062a57600080fd5b81356200063781620004b4565b9392505050565b6000815480845260208085019450836000528060002060005b838110156200067e5781546001600160a01b03168752958201956001918201910162000657565b509495945050505050565b600060018060a01b03808916835260c06020840152620006ad60c08401896200063e565b915086604084015285606084015284608084015280841660a084015250979650505050505050565b8381526001600160a01b038316602082015260606040820181905260009062000701908301846200063e565b95945050505050565b6020808252825182820181905260009190848201906040850190845b818110156200074d5783516001600160a01b03168352928401929184019160010162000726565b5090969550505050505056fe6101206040523480156200001257600080fd5b50604051620017f6380380620017f6833981016040819052620000359162000417565b60128685858886620000473362000258565b8381116200009c5760405162461bcd60e51b815260206004820152601d60248201527f4d617820616765206e6f742061626f7665206c6f636b2077696e646f7700000060448201526064015b60405180910390fd5b60008311620000ee5760405162461bcd60e51b815260206004820152601960248201527f4d61782074726176657273616c206d757374206265203e203000000000000000604482015260640162000093565b608084905260a083905260c081905260005b82518110156200014e576200013983828151811062000123576200012362000530565b60200260200101516001620002a860201b60201c565b80620001458162000546565b91505062000100565b5060405184907f7232430c38d2db810b464dc9cd004f0e41528c6ba2eb1e2e4e3220ffd3a83a1b90600090a260405183907f9955b343f0b35bf4c2045c06550a8ec2d914db72d497a1430ca3526a248f20a590600090a260405181907f6777d8e4257e9f6a86d2f91b2b9fceaeb931d8b35249fbb63203c2dc0c08187090600090a2505050506001600160a01b03811660e08190526040517f4c8947d84ec5b72893956872efb0653c066b1b7895c0cb617c7679ee0fd1efff90600090a25060ff81166101008190526040517f4e500e16c773a18df7642e2d86cfe357eab156473b38c34df4e15dffb895072690600090a2506200024c8162000258565b5050505050506200056e565b600080546001600160a01b038381166001600160a01b0319831681178455604051919092169283917f8be0079c531659141344cd1fd0a4f28419497f9722a3daafe3b4186f6b6457e09190a35050565b620002b262000378565b6001600160a01b03821660009081526002602052604090205481151560ff909116151503620003245760405162461bcd60e51b815260206004820152601460248201527f556e6c6f636b6572206e6f74206368616e676564000000000000000000000000604482015260640162000093565b6001600160a01b038216600081815260026020526040808220805460ff191685151590811790915590519092917f60209f49f531418079ff149eb1d71f100566dcaba03bf5a34930e08111df20c491a35050565b6000546001600160a01b03163314620003d45760405162461bcd60e51b815260206004820181905260248201527f4f776e61626c653a2063616c6c6572206973206e6f7420746865206f776e6572604482015260640162000093565b565b6001600160a01b0381168114620003ec57600080fd5b50565b634e487b7160e01b600052604160045260246000fd5b80516200041281620003d6565b919050565b60008060008060008060c087890312156200043157600080fd5b86516200043e81620003d6565b602088810151919750906001600160401b03808211156200045e57600080fd5b818a0191508a601f8301126200047357600080fd5b815181811115620004885762000488620003ef565b8060051b604051601f19603f83011681018181108582111715620004b057620004b0620003ef565b60405291825284820192508381018501918d831115620004cf57600080fd5b938501935b82851015620004f857620004e88562000405565b84529385019392850192620004d4565b809a505050505050506040870151935060608701519250608087015191506200052460a0880162000405565b90509295509295509295565b634e487b7160e01b600052603260045260246000fd5b6000600182016200056757634e487b7160e01b600052601160045260246000fd5b5060010190565b60805160a05160c05160e05161010051611204620005f2600039600081816101ff01528181610685015281816108b20152610b050152600081816103980152818161053401526105bb01526000818161029e0152610d3a0152600081816103660152610467015260008181610248015281816104340152610a8f01526112046000f3fe608060405234801561001057600080fd5b50600436106101735760003560e01c80637292eb69116100de578063bf39dd4911610097578063d6565a2d11610071578063d6565a2d146103e0578063f2fde38b146103f3578063f6e1d17a14610406578063feaf968c1461041957600080fd5b8063bf39dd4914610393578063cb53b08d146103ba578063d3fff0f6146103cd57600080fd5b80637292eb69146102ca5780638205bf6a146102ed5780638da5cb5b146102f55780639a6fc8f51461031a578063a3c0447614610364578063a5c38b3d1461038a57600080fd5b80633376f53a116101305780633376f53a146102465780633d6ba5781461027657806350d25bcd1461028c5780636666d37214610294578063687043c51461029c578063715018a6146102c257600080fd5b80630125554b1461017857806313862364146101a0578063172b09f9146101aa57806324a419f4146101dd578063313ce567146101fa57806332c6534b14610233575b600080fd5b610180610421565b604080519384526020840192909252908201526060015b60405180910390f35b6101a8610496565b005b6101cd6101b8366004610ec0565b60026020526000908152604090205460ff1681565b6040519015158152602001610197565b6101e561052c565b60408051928352602083019190915201610197565b6102217f000000000000000000000000000000000000000000000000000000000000000081565b60405160ff9091168152602001610197565b6101cd610241366004610edb565b61064b565b7f00000000000000000000000000000000000000000000000000000000000000005b604051908152602001610197565b6101e5610284366004610f05565b506000908190565b61026861066e565b6101a86106af565b7f0000000000000000000000000000000000000000000000000000000000000000610268565b6101a86107d8565b6102d26107ec565b60408051825181526020928301519281019290925201610197565b610268610872565b6000546001600160a01b03165b6040516001600160a01b039091168152602001610197565b61032d610328366004610f1e565b610885565b6040805169ffffffffffffffffffff968716815260208101959095528401929092526060830152909116608082015260a001610197565b7f0000000000000000000000000000000000000000000000000000000000000000610268565b61026860015481565b6103027f000000000000000000000000000000000000000000000000000000000000000081565b6101806103c8366004610f4a565b6108e9565b6101a86103db366004610f6c565b610911565b6101e56103ee366004610f05565b6109d4565b6101a8610401366004610ec0565b610a02565b6101e5610414366004610f05565b610a7b565b61032d610ad5565b600080600061048b6104656001546104567f000000000000000000000000000000000000000000000000000000000000000090565b6104609042610fbe565b610b3d565b7f00000000000000000000000000000000000000000000000000000000000000006108e9565b925092509250909192565b6104a23360015461064b565b6104f35760405162461bcd60e51b815260206004820152601d60248201527f436f6e74726f6c6c657220626c6f636b65643a2063616e556e6c6f636b00000060448201526064015b60405180910390fd5b6104fb6106af565b4260018190556040517f3ee2ed8fd57cf3bdf05ef91fbe207825c00ef41e2303a859c67a84cd46cd69aa90600090a2565b6000806105b97f00000000000000000000000000000000000000000000000000000000000000006001600160a01b03166357de26a46040518163ffffffff1660e01b8152600401602060405180830381865afa158015610590573d6000803e3d6000fd5b505050506040513d601f19601f820116820180604052508101906105b49190610fd1565b610b55565b7f00000000000000000000000000000000000000000000000000000000000000006001600160a01b031663262a9dff6040518163ffffffff1660e01b8152600401602060405180830381865afa158015610617573d6000803e3d6000fd5b505050506040513d601f19601f8201168201806040525081019061063b9190610fea565b909363ffffffff90911692509050565b6001600160a01b03821660009081526002602052604090205460ff165b92915050565b600080610679610421565b505090506106a98160127f0000000000000000000000000000000000000000000000000000000000000000610bc3565b91505090565b6000806106ba61052c565b6040805180820190915282815260208101829052919350915060008290036106e157505050565b6003548015801590610724575060208201516003610700600184610fbe565b8154811061071057610710611010565b906000526020600020906002020160010154145b1561072f5750505050565b60038054600181018255600091909152825160029091027fc2575a0e9e593c00f959f8c92f12db2869c3395a3b0502d05e2516446f71f85b810182905560208401517fc2575a0e9e593c00f959f8c92f12db2869c3395a3b0502d05e2516446f71f85c9091018190556040517ff500358c8d5c04faf9e5b933d49e928da38afad4ff748ca6cd85428485caa508906107ca9085815260200190565b60405180910390a350505050565b6107e0610c34565b6107ea6000610c8e565b565b60408051808201909152600080825260208201526003541561085a576003805461081890600190610fbe565b8154811061082857610828611010565b906000526020600020906002020160405180604001604052908160008201548152602001600182015481525050905090565b50604080518082019091526000808252602082015290565b60008061087d610421565b509392505050565b60008060008060008060006108a58869ffffffffffffffffffff16610a7b565b91509150876108d68360127f0000000000000000000000000000000000000000000000000000000000000000610bc3565b9099909891975087965090945092505050565b6000806000806108f98686610cde565b80516020909101519097909650600195509350505050565b610919610c34565b6001600160a01b03821660009081526002602052604090205481151560ff9091161515036109805760405162461bcd60e51b8152602060048201526014602482015273155b9b1bd8dad95c881b9bdd0818da185b99d95960621b60448201526064016104ea565b6001600160a01b038216600081815260026020526040808220805460ff191685151590811790915590519092917f60209f49f531418079ff149eb1d71f100566dcaba03bf5a34930e08111df20c491a35050565b600381815481106109e457600080fd5b60009182526020909120600290910201805460019091015490915082565b610a0a610c34565b6001600160a01b038116610a6f5760405162461bcd60e51b815260206004820152602660248201527f4f776e61626c653a206e6577206f776e657220697320746865207a65726f206160448201526564647265737360d01b60648201526084016104ea565b610a7881610c8e565b50565b6001546000908190819081908190610ab3907f0000000000000000000000000000000000000000000000000000000000000000610456565b9050808211610ac757509094909350915050565b506000958695509350505050565b600080600080600080600080610ae9610421565b9250925092506000610afa82610d7e565b905080610b298560127f0000000000000000000000000000000000000000000000000000000000000000610bc3565b909a90995092975087965094509092505050565b6000818311610b4c5781610b4e565b825b9392505050565b60006001600160ff1b03821115610bbf5760405162461bcd60e51b815260206004820152602860248201527f53616665436173743a2076616c756520646f65736e27742066697420696e2061604482015267371034b73a191a9b60c11b60648201526084016104ea565b5090565b60008160ff168360ff1603610bd9575082610b4e565b8160ff168360ff161015610c0d57610bf18383611026565b610bfc90600a611123565b610c069085611132565b9050610b4e565b610c178284611026565b610c2290600a611123565b610c2c9085611162565b949350505050565b6000546001600160a01b031633146107ea5760405162461bcd60e51b815260206004820181905260248201527f4f776e61626c653a2063616c6c6572206973206e6f7420746865206f776e657260448201526064016104ea565b600080546001600160a01b038381166001600160a01b0319831681178455604051919092169283917f8be0079c531659141344cd1fd0a4f28419497f9722a3daafe3b4186f6b6457e09190a35050565b6040805180820190915260008082526020820152600080610cfd61052c565b60408051808201909152828152602081018290529193509150858211610d27579250610668915050565b6000610d338787610de9565b9050610d5f7f000000000000000000000000000000000000000000000000000000000000000042610fbe565b816020015110610d7457935061066892505050565b5095945050505050565b600069ffffffffffffffffffff821115610bbf5760405162461bcd60e51b815260206004820152602660248201527f53616665436173743a2076616c756520646f65736e27742066697420696e203860448201526530206269747360d01b60648201526084016104ea565b604080518082019091526000808252602082015260408051808201909152600080825260208201526003546000905b8482108015610e275750600081115b15610e9a5780610e368161119e565b91505060038181548110610e4c57610e4c611010565b600091825260209182902060408051808201909152600290920201805482526001015491810182905293508610610e8857829350505050610668565b81610e92816111b5565b925050610e18565b5090949350505050565b80356001600160a01b0381168114610ebb57600080fd5b919050565b600060208284031215610ed257600080fd5b610b4e82610ea4565b60008060408385031215610eee57600080fd5b610ef783610ea4565b946020939093013593505050565b600060208284031215610f1757600080fd5b5035919050565b600060208284031215610f3057600080fd5b813569ffffffffffffffffffff81168114610b4e57600080fd5b60008060408385031215610f5d57600080fd5b50508035926020909101359150565b60008060408385031215610f7f57600080fd5b610f8883610ea4565b915060208301358015158114610f9d57600080fd5b809150509250929050565b634e487b7160e01b600052601160045260246000fd5b8181038181111561066857610668610fa8565b600060208284031215610fe357600080fd5b5051919050565b600060208284031215610ffc57600080fd5b815163ffffffff81168114610b4e57600080fd5b634e487b7160e01b600052603260045260246000fd5b60ff828116828216039081111561066857610668610fa8565b600181815b8085111561107a57816000190482111561106057611060610fa8565b8085161561106d57918102915b93841c9390800290611044565b509250929050565b60008261109157506001610668565b8161109e57506000610668565b81600181146110b457600281146110be576110da565b6001915050610668565b60ff8411156110cf576110cf610fa8565b50506001821b610668565b5060208310610133831016604e8410600b84101617156110fd575081810a610668565b611107838361103f565b806000190482111561111b5761111b610fa8565b029392505050565b6000610b4e60ff841683611082565b80820260008212600160ff1b8414161561114e5761114e610fa8565b818105831482151761066857610668610fa8565b60008261117f57634e487b7160e01b600052601260045260246000fd5b600160ff1b82146000198414161561119957611199610fa8565b500590565b6000816111ad576111ad610fa8565b506000190190565b6000600182016111c7576111c7610fa8565b506001019056fea2646970667358221220823402e55e5551ab500933ba22fe47fda037e52aa7a47b54f9d880498294814264736f6c63430008110033a2646970667358221220e260d64872f450ee4dddaf165b391ef1b74d817835b6f3b894af501c551524f664736f6c63430008110033","linkReferences":{}},"methodIdentifiers":{"MAX_TRAVERSAL()":"58781576","create(address,uint256,uint256)":"5165da30","defaultUnlockers(uint256)":"5c681d1e","owner()":"8da5cb5b","renounceOwnership()":"715018a6","setDefaultUnlockers(address[])":"a9d14058","transferOwnership(address)":"f2fde38b"},"id":48}