{"abi":[{"type":"constructor","inputs":[{"name":"_pyth","type":"address","internalType":"contract IPyth"},{"name":"_maxTraversal","type":"uint256","internalType":"uint256"},{"name":"_defaultUnlockers","type":"address[]","internalType":"address[]"}],"stateMutability":"nonpayable"},{"type":"function","name":"MAX_TRAVERSAL","inputs":[],"outputs":[{"name":"","type":"uint256","internalType":"uint256"}],"stateMutability":"view"},{"type":"function","name":"PYTH","inputs":[],"outputs":[{"name":"","type":"address","internalType":"contract IPyth"}],"stateMutability":"view"},{"type":"function","name":"create","inputs":[{"name":"pythPriceId","type":"bytes32","internalType":"bytes32"},{"name":"lockWindow","type":"uint256","internalType":"uint256"},{"name":"maxAge","type":"uint256","internalType":"uint256"}],"outputs":[{"name":"oval","type":"address","internalType":"address"}],"stateMutability":"nonpayable"},{"type":"function","name":"defaultUnlockers","inputs":[{"name":"","type":"uint256","internalType":"uint256"}],"outputs":[{"name":"","type":"address","internalType":"address"}],"stateMutability":"view"},{"type":"function","name":"owner","inputs":[],"outputs":[{"name":"","type":"address","internalType":"address"}],"stateMutability":"view"},{"type":"function","name":"renounceOwnership","inputs":[],"outputs":[],"stateMutability":"nonpayable"},{"type":"function","name":"setDefaultUnlockers","inputs":[{"name":"_defaultUnlockers","type":"address[]","internalType":"address[]"}],"outputs":[],"stateMutability":"nonpayable"},{"type":"function","name":"transferOwnership","inputs":[{"name":"newOwner","type":"address","internalType":"address"}],"outputs":[],"stateMutability":"nonpayable"},{"type":"event","name":"DefaultUnlockersSet","inputs":[{"name":"defaultUnlockers","type":"address[]","indexed":false,"internalType":"address[]"}],"anonymous":false},{"type":"event","name":"OvalDeployed","inputs":[{"name":"deployer","type":"address","indexed":true,"internalType":"address"},{"name":"oval","type":"address","indexed":true,"internalType":"address"},{"name":"lockWindow","type":"uint256","indexed":true,"internalType":"uint256"},{"name":"maxTraversal","type":"uint256","indexed":false,"internalType":"uint256"},{"name":"owner","type":"address","indexed":false,"internalType":"address"},{"name":"unlockers","type":"address[]","indexed":false,"internalType":"address[]"}],"anonymous":false},{"type":"event","name":"OwnershipTransferred","inputs":[{"name":"previousOwner","type":"address","indexed":true,"internalType":"address"},{"name":"newOwner","type":"address","indexed":true,"internalType":"address"}],"anonymous":false}],"bytecode":{"object":"0x60c06040523480156200001157600080fd5b506040516200247538038062002475833981016040819052620000349162000289565b81816200004133620000bd565b60008211620000975760405162461bcd60e51b815260206004820152601960248201527f4d61782074726176657273616c206d757374206265203e20300000000000000060448201526064015b60405180910390fd5b6080829052620000a7816200010d565b505050506001600160a01b031660a052620003cc565b600080546001600160a01b038381166001600160a01b0319831681178455604051919092169283917f8be0079c531659141344cd1fd0a4f28419497f9722a3daafe3b4186f6b6457e09190a35050565b6200011762000169565b80516200012c906001906020840190620001c7565b507f53dcea6cd8a9fb42c53d0155aebceb09df1f90371ee9727c244f6557223bae16816040516200015e91906200037d565b60405180910390a150565b6000546001600160a01b03163314620001c55760405162461bcd60e51b815260206004820181905260248201527f4f776e61626c653a2063616c6c6572206973206e6f7420746865206f776e657260448201526064016200008e565b565b8280548282559060005260206000209081019282156200021f579160200282015b828111156200021f57825182546001600160a01b0319166001600160a01b03909116178255602090920191600190910190620001e8565b506200022d92915062000231565b5090565b5b808211156200022d576000815560010162000232565b6001600160a01b03811681146200025e57600080fd5b50565b634e487b7160e01b600052604160045260246000fd5b8051620002848162000248565b919050565b6000806000606084860312156200029f57600080fd5b8351620002ac8162000248565b60208581015160408701519295509350906001600160401b0380821115620002d357600080fd5b818701915087601f830112620002e857600080fd5b815181811115620002fd57620002fd62000261565b8060051b604051601f19603f8301168101818110858211171562000325576200032562000261565b60405291825284820192508381018501918a8311156200034457600080fd5b938501935b828510156200036d576200035d8562000277565b8452938501939285019262000349565b8096505050505050509250925092565b6020808252825182820181905260009190848201906040850190845b81811015620003c05783516001600160a01b03168352928401929184019160010162000399565b50909695505050505050565b60805160a05161206f62000406600039600081816101090152610231015260008181609e0152818161025601526102f8015261206f6000f3fe60806040523480156200001157600080fd5b5060043610620000935760003560e01c80638da5cb5b11620000625780638da5cb5b1462000137578063a9d140581462000149578063b5f8c36b1462000160578063f2fde38b146200017757600080fd5b80635878157614620000985780635c681d1e14620000d357806367e406d51462000103578063715018a6146200012b575b600080fd5b620000c07f000000000000000000000000000000000000000000000000000000000000000081565b6040519081526020015b60405180910390f35b620000ea620000e43660046200050a565b6200018e565b6040516001600160a01b039091168152602001620000ca565b620000ea7f000000000000000000000000000000000000000000000000000000000000000081565b62000135620001b9565b005b6000546001600160a01b0316620000ea565b620001356200015a36600462000557565b620001d1565b620000ea620001713660046200062a565b6200022d565b620001356200018836600462000657565b6200034c565b600181815481106200019f57600080fd5b6000918252602090912001546001600160a01b0316905081565b620001c3620003cf565b620001cf60006200042b565b565b620001db620003cf565b8051620001f09060019060208401906200047b565b507f53dcea6cd8a9fb42c53d0155aebceb09df1f90371ee9727c244f6557223bae16816040516200022291906200067c565b60405180910390a150565b60007f0000000000000000000000000000000000000000000000000000000000000000846001857f000000000000000000000000000000000000000000000000000000000000000086620002896000546001600160a01b031690565b6040516200029790620004e5565b620002a9979695949392919062000716565b604051809103906000f080158015620002c6573d6000803e3d6000fd5b509050826001600160a01b038216337f5e826bc8ad243559fc75cc77b0e474a2ec85df26aeb5cd6db9d9ed1740f39afa7f00000000000000000000000000000000000000000000000000000000000000006200032a6000546001600160a01b031690565b60016040516200033d9392919062000769565b60405180910390a49392505050565b62000356620003cf565b6001600160a01b038116620003c15760405162461bcd60e51b815260206004820152602660248201527f4f776e61626c653a206e6577206f776e657220697320746865207a65726f206160448201526564647265737360d01b60648201526084015b60405180910390fd5b620003cc816200042b565b50565b6000546001600160a01b03163314620001cf5760405162461bcd60e51b815260206004820181905260248201527f4f776e61626c653a2063616c6c6572206973206e6f7420746865206f776e65726044820152606401620003b8565b600080546001600160a01b038381166001600160a01b0319831681178455604051919092169283917f8be0079c531659141344cd1fd0a4f28419497f9722a3daafe3b4186f6b6457e09190a35050565b828054828255906000526020600020908101928215620004d3579160200282015b82811115620004d357825182546001600160a01b0319166001600160a01b039091161782556020909201916001909101906200049c565b50620004e1929150620004f3565b5090565b61189b806200079f83390190565b5b80821115620004e15760008155600101620004f4565b6000602082840312156200051d57600080fd5b5035919050565b634e487b7160e01b600052604160045260246000fd5b80356001600160a01b03811681146200055257600080fd5b919050565b600060208083850312156200056b57600080fd5b823567ffffffffffffffff808211156200058457600080fd5b818501915085601f8301126200059957600080fd5b813581811115620005ae57620005ae62000524565b8060051b604051601f19603f83011681018181108582111715620005d657620005d662000524565b604052918252848201925083810185019188831115620005f557600080fd5b938501935b828510156200061e576200060e856200053a565b84529385019392850192620005fa565b98975050505050505050565b6000806000606084860312156200064057600080fd5b505081359360208301359350604090920135919050565b6000602082840312156200066a57600080fd5b62000675826200053a565b9392505050565b6020808252825182820181905260009190848201906040850190845b81811015620006bf5783516001600160a01b03168352928401929184019160010162000698565b50909695505050505050565b6000815480845260208085019450836000528060002060005b838110156200070b5781546001600160a01b031687529582019560019182019101620006e4565b509495945050505050565b600060018060a01b03808a16835288602084015260e060408401526200074060e0840189620006cb565b91508660608401528560808401528460a084015280841660c08401525098975050505050505050565b8381526001600160a01b03831660208201526060604082018190526000906200079590830184620006cb565b9594505050505056fe6101406040523480156200001257600080fd5b506040516200189b3803806200189b833981016040819052620000359162000422565b6012878786868987620000483362000263565b8381116200009d5760405162461bcd60e51b815260206004820152601d60248201527f4d617820616765206e6f742061626f7665206c6f636b2077696e646f7700000060448201526064015b60405180910390fd5b60008311620000ef5760405162461bcd60e51b815260206004820152601960248201527f4d61782074726176657273616c206d757374206265203e203000000000000000604482015260640162000094565b608084905260a083905260c081905260005b82518110156200014f576200013a83828151811062000124576200012462000546565b60200260200101516001620002b360201b60201c565b8062000146816200055c565b91505062000101565b5060405184907f7232430c38d2db810b464dc9cd004f0e41528c6ba2eb1e2e4e3220ffd3a83a1b90600090a260405183907f9955b343f0b35bf4c2045c06550a8ec2d914db72d497a1430ca3526a248f20a590600090a260405181907f6777d8e4257e9f6a86d2f91b2b9fceaeb931d8b35249fbb63203c2dc0c08187090600090a25050506001600160a01b03831660e08190526101008390526040518392507f352ffb84cbc39305b8921ad0af26cbf5ecd6bb8034fe313ce472d107f5650f6290600090a3505060ff81166101208190526040517f4e500e16c773a18df7642e2d86cfe357eab156473b38c34df4e15dffb895072690600090a250620002568162000263565b5050505050505062000584565b600080546001600160a01b038381166001600160a01b0319831681178455604051919092169283917f8be0079c531659141344cd1fd0a4f28419497f9722a3daafe3b4186f6b6457e09190a35050565b620002bd62000383565b6001600160a01b03821660009081526002602052604090205481151560ff9091161515036200032f5760405162461bcd60e51b815260206004820152601460248201527f556e6c6f636b6572206e6f74206368616e676564000000000000000000000000604482015260640162000094565b6001600160a01b038216600081815260026020526040808220805460ff191685151590811790915590519092917f60209f49f531418079ff149eb1d71f100566dcaba03bf5a34930e08111df20c491a35050565b6000546001600160a01b03163314620003df5760405162461bcd60e51b815260206004820181905260248201527f4f776e61626c653a2063616c6c6572206973206e6f7420746865206f776e6572604482015260640162000094565b565b6001600160a01b0381168114620003f757600080fd5b50565b634e487b7160e01b600052604160045260246000fd5b80516200041d81620003e1565b919050565b600080600080600080600060e0888a0312156200043e57600080fd5b87516200044b81620003e1565b60208981015160408b01519299509750906001600160401b03808211156200047257600080fd5b818b0191508b601f8301126200048757600080fd5b8151818111156200049c576200049c620003fa565b8060051b604051601f19603f83011681018181108582111715620004c457620004c4620003fa565b60405291825284820192508381018501918e831115620004e357600080fd5b938501935b828510156200050c57620004fc8562000410565b84529385019392850192620004e8565b809a50505050505050606088015193506080880151925060a088015191506200053860c0890162000410565b905092959891949750929550565b634e487b7160e01b600052603260045260246000fd5b6000600182016200057d57634e487b7160e01b600052601160045260246000fd5b5060010190565b60805160a05160c05160e0516101005161012051611288620006136000396000818161024f01528181610684015281816108b10152610b040152600081816101c001526105850152600081816102df01526105ba0152600081816103230152610d030152600081816103d701526104b10152600081816102980152818161047e0152610a8e01526112886000f3fe608060405234801561001057600080fd5b506004361061018e5760003560e01c8063715018a6116100de578063a5c38b3d11610097578063d6565a2d11610071578063d6565a2d1461042a578063f2fde38b1461043d578063f6e1d17a14610450578063feaf968c1461046357600080fd5b8063a5c38b3d146103fb578063cb53b08d14610404578063d3fff0f61461041757600080fd5b8063715018a6146103475780637292eb691461034f5780638205bf6a146103725780638da5cb5b1461037a5780639a6fc8f51461038b578063a3c04476146103d557600080fd5b806332c6534b1161014b57806350d25bcd1161012557806350d25bcd146102d257806363a890a5146102da5780636666d37214610319578063687043c51461032157600080fd5b806332c6534b146102835780633376f53a146102965780633d6ba578146102bc57600080fd5b80630125554b146101935780630cb0f4fa146101bb57806313862364146101f0578063172b09f9146101fa57806324a419f41461022d578063313ce5671461024a575b600080fd5b61019b61046b565b604080519384526020840192909252908201526060015b60405180910390f35b6101e27f000000000000000000000000000000000000000000000000000000000000000081565b6040519081526020016101b2565b6101f86104e0565b005b61021d610208366004610e8d565b60026020526000908152604090205460ff1681565b60405190151581526020016101b2565b610235610576565b604080519283526020830191909152016101b2565b6102717f000000000000000000000000000000000000000000000000000000000000000081565b60405160ff90911681526020016101b2565b61021d610291366004610ea8565b61064a565b7f00000000000000000000000000000000000000000000000000000000000000006101e2565b6102356102ca366004610ed2565b506000908190565b6101e261066d565b6103017f000000000000000000000000000000000000000000000000000000000000000081565b6040516001600160a01b0390911681526020016101b2565b6101f86106ae565b7f00000000000000000000000000000000000000000000000000000000000000006101e2565b6101f86107d7565b6103576107eb565b604080518251815260209283015192810192909252016101b2565b6101e2610871565b6000546001600160a01b0316610301565b61039e610399366004610eeb565b610884565b6040805169ffffffffffffffffffff968716815260208101959095528401929092526060830152909116608082015260a0016101b2565b7f00000000000000000000000000000000000000000000000000000000000000006101e2565b6101e260015481565b61019b610412366004610f17565b6108e8565b6101f8610425366004610f39565b610910565b610235610438366004610ed2565b6109d3565b6101f861044b366004610e8d565b610a01565b61023561045e366004610ed2565b610a7a565b61039e610ad4565b60008060006104d56104af6001546104a07f000000000000000000000000000000000000000000000000000000000000000090565b6104aa9042610f8b565b610b3c565b7f00000000000000000000000000000000000000000000000000000000000000006108e8565b925092509250909192565b6104ec3360015461064a565b61053d5760405162461bcd60e51b815260206004820152601d60248201527f436f6e74726f6c6c657220626c6f636b65643a2063616e556e6c6f636b00000060448201526064015b60405180910390fd5b6105456106ae565b4260018190556040517f3ee2ed8fd57cf3bdf05ef91fbe207825c00ef41e2303a859c67a84cd46cd69aa90600090a2565b6040516396834ad360e01b81527f00000000000000000000000000000000000000000000000000000000000000006004820152600090819081906001600160a01b037f000000000000000000000000000000000000000000000000000000000000000016906396834ad390602401608060405180830381865afa158015610601573d6000803e3d6000fd5b505050506040513d601f19601f820116820180604052508101906106259190610fc8565b905061063c816000015160070b8260400151610b54565b816060015192509250509091565b6001600160a01b03821660009081526002602052604090205460ff165b92915050565b60008061067861046b565b505090506106a88160127f0000000000000000000000000000000000000000000000000000000000000000610b8c565b91505090565b6000806106b9610576565b6040805180820190915282815260208101829052919350915060008290036106e057505050565b60035480158015906107235750602082015160036106ff600184610f8b565b8154811061070f5761070f611058565b906000526020600020906002020160010154145b1561072e5750505050565b60038054600181018255600091909152825160029091027fc2575a0e9e593c00f959f8c92f12db2869c3395a3b0502d05e2516446f71f85b810182905560208401517fc2575a0e9e593c00f959f8c92f12db2869c3395a3b0502d05e2516446f71f85c9091018190556040517ff500358c8d5c04faf9e5b933d49e928da38afad4ff748ca6cd85428485caa508906107c99085815260200190565b60405180910390a350505050565b6107df610bfd565b6107e96000610c57565b565b604080518082019091526000808252602082015260035415610859576003805461081790600190610f8b565b8154811061082757610827611058565b906000526020600020906002020160405180604001604052908160008201548152602001600182015481525050905090565b50604080518082019091526000808252602082015290565b60008061087c61046b565b509392505050565b60008060008060008060006108a48869ffffffffffffffffffff16610a7a565b91509150876108d58360127f0000000000000000000000000000000000000000000000000000000000000000610b8c565b9099909891975087965090945092505050565b6000806000806108f88686610ca7565b80516020909101519097909650600195509350505050565b610918610bfd565b6001600160a01b03821660009081526002602052604090205481151560ff90911615150361097f5760405162461bcd60e51b8152602060048201526014602482015273155b9b1bd8dad95c881b9bdd0818da185b99d95960621b6044820152606401610534565b6001600160a01b038216600081815260026020526040808220805460ff191685151590811790915590519092917f60209f49f531418079ff149eb1d71f100566dcaba03bf5a34930e08111df20c491a35050565b600381815481106109e357600080fd5b60009182526020909120600290910201805460019091015490915082565b610a09610bfd565b6001600160a01b038116610a6e5760405162461bcd60e51b815260206004820152602660248201527f4f776e61626c653a206e6577206f776e657220697320746865207a65726f206160448201526564647265737360d01b6064820152608401610534565b610a7781610c57565b50565b6001546000908190819081908190610ab2907f00000000000000000000000000000000000000000000000000000000000000006104a0565b9050808211610ac657509094909350915050565b506000958695509350505050565b600080600080600080600080610ae861046b565b9250925092506000610af982610d47565b905080610b288560127f0000000000000000000000000000000000000000000000000000000000000000610b8c565b909a90995092975087965094509092505050565b6000818311610b4b5781610b4d565b825b9392505050565b6000808260030b13610b7b57610b7483610b6d8461106e565b6012610b8c565b9050610667565b610b74836000610b8c856012611091565b60008160ff168360ff1603610ba2575082610b4d565b8160ff168360ff161015610bd657610bba83836110aa565b610bc590600a6111a7565b610bcf90856111b6565b9050610b4d565b610be082846110aa565b610beb90600a6111a7565b610bf590856111e6565b949350505050565b6000546001600160a01b031633146107e95760405162461bcd60e51b815260206004820181905260248201527f4f776e61626c653a2063616c6c6572206973206e6f7420746865206f776e65726044820152606401610534565b600080546001600160a01b038381166001600160a01b0319831681178455604051919092169283917f8be0079c531659141344cd1fd0a4f28419497f9722a3daafe3b4186f6b6457e09190a35050565b6040805180820190915260008082526020820152600080610cc6610576565b60408051808201909152828152602081018290529193509150858211610cf0579250610667915050565b6000610cfc8787610db6565b9050610d287f000000000000000000000000000000000000000000000000000000000000000042610f8b565b816020015110610d3d57935061066792505050565b5095945050505050565b600069ffffffffffffffffffff821115610db25760405162461bcd60e51b815260206004820152602660248201527f53616665436173743a2076616c756520646f65736e27742066697420696e203860448201526530206269747360d01b6064820152608401610534565b5090565b604080518082019091526000808252602082015260408051808201909152600080825260208201526003546000905b8482108015610df45750600081115b15610e675780610e0381611222565b91505060038181548110610e1957610e19611058565b600091825260209182902060408051808201909152600290920201805482526001015491810182905293508610610e5557829350505050610667565b81610e5f81611239565b925050610de5565b5090949350505050565b80356001600160a01b0381168114610e8857600080fd5b919050565b600060208284031215610e9f57600080fd5b610b4d82610e71565b60008060408385031215610ebb57600080fd5b610ec483610e71565b946020939093013593505050565b600060208284031215610ee457600080fd5b5035919050565b600060208284031215610efd57600080fd5b813569ffffffffffffffffffff81168114610b4d57600080fd5b60008060408385031215610f2a57600080fd5b50508035926020909101359150565b60008060408385031215610f4c57600080fd5b610f5583610e71565b915060208301358015158114610f6a57600080fd5b809150509250929050565b634e487b7160e01b600052601160045260246000fd5b8181038181111561066757610667610f75565b805167ffffffffffffffff81168114610e8857600080fd5b8051600381900b8114610e8857600080fd5b600060808284031215610fda57600080fd5b6040516080810181811067ffffffffffffffff8211171561100b57634e487b7160e01b600052604160045260246000fd5b6040528251600781900b811461102057600080fd5b815261102e60208401610f9e565b602082015261103f60408401610fb6565b6040820152606083015160608201528091505092915050565b634e487b7160e01b600052603260045260246000fd5b60008160030b637fffffff19810361108857611088610f75565b60000392915050565b60ff818116838216019081111561066757610667610f75565b60ff828116828216039081111561066757610667610f75565b600181815b808511156110fe5781600019048211156110e4576110e4610f75565b808516156110f157918102915b93841c93908002906110c8565b509250929050565b60008261111557506001610667565b8161112257506000610667565b816001811461113857600281146111425761115e565b6001915050610667565b60ff84111561115357611153610f75565b50506001821b610667565b5060208310610133831016604e8410600b8410161715611181575081810a610667565b61118b83836110c3565b806000190482111561119f5761119f610f75565b029392505050565b6000610b4d60ff841683611106565b80820260008212600160ff1b841416156111d2576111d2610f75565b818105831482151761066757610667610f75565b60008261120357634e487b7160e01b600052601260045260246000fd5b600160ff1b82146000198414161561121d5761121d610f75565b500590565b60008161123157611231610f75565b506000190190565b60006001820161124b5761124b610f75565b506001019056fea2646970667358221220662f7349fbc887eb9f161c891dd25d33d52ca8972b31ab24bae686207dea5a5b64736f6c63430008110033a2646970667358221220dfead5361a611dc3d5db7724f56838800d56fa4c22436670a9c438451b33be6664736f6c63430008110033","linkReferences":{}},"methodIdentifiers":{"MAX_TRAVERSAL()":"58781576","PYTH()":"67e406d5","create(bytes32,uint256,uint256)":"b5f8c36b","defaultUnlockers(uint256)":"5c681d1e","owner()":"8da5cb5b","renounceOwnership()":"715018a6","setDefaultUnlockers(address[])":"a9d14058","transferOwnership(address)":"f2fde38b"},"id":50}