{"abi":[{"type":"constructor","inputs":[{"name":"_source","type":"address","internalType":"contract IAggregatorV3SourceCoinbase"},{"name":"_maxTraversal","type":"uint256","internalType":"uint256"},{"name":"_defaultUnlockers","type":"address[]","internalType":"address[]"}],"stateMutability":"nonpayable"},{"type":"function","name":"MAX_TRAVERSAL","inputs":[],"outputs":[{"name":"","type":"uint256","internalType":"uint256"}],"stateMutability":"view"},{"type":"function","name":"SOURCE","inputs":[],"outputs":[{"name":"","type":"address","internalType":"contract IAggregatorV3SourceCoinbase"}],"stateMutability":"view"},{"type":"function","name":"create","inputs":[{"name":"ticker","type":"string","internalType":"string"},{"name":"lockWindow","type":"uint256","internalType":"uint256"},{"name":"maxAge","type":"uint256","internalType":"uint256"}],"outputs":[{"name":"oval","type":"address","internalType":"address"}],"stateMutability":"nonpayable"},{"type":"function","name":"defaultUnlockers","inputs":[{"name":"","type":"uint256","internalType":"uint256"}],"outputs":[{"name":"","type":"address","internalType":"address"}],"stateMutability":"view"},{"type":"function","name":"owner","inputs":[],"outputs":[{"name":"","type":"address","internalType":"address"}],"stateMutability":"view"},{"type":"function","name":"renounceOwnership","inputs":[],"outputs":[],"stateMutability":"nonpayable"},{"type":"function","name":"setDefaultUnlockers","inputs":[{"name":"_defaultUnlockers","type":"address[]","internalType":"address[]"}],"outputs":[],"stateMutability":"nonpayable"},{"type":"function","name":"transferOwnership","inputs":[{"name":"newOwner","type":"address","internalType":"address"}],"outputs":[],"stateMutability":"nonpayable"},{"type":"event","name":"DefaultUnlockersSet","inputs":[{"name":"defaultUnlockers","type":"address[]","indexed":false,"internalType":"address[]"}],"anonymous":false},{"type":"event","name":"OvalDeployed","inputs":[{"name":"deployer","type":"address","indexed":true,"internalType":"address"},{"name":"oval","type":"address","indexed":true,"internalType":"address"},{"name":"lockWindow","type":"uint256","indexed":true,"internalType":"uint256"},{"name":"maxTraversal","type":"uint256","indexed":false,"internalType":"uint256"},{"name":"owner","type":"address","indexed":false,"internalType":"address"},{"name":"unlockers","type":"address[]","indexed":false,"internalType":"address[]"}],"anonymous":false},{"type":"event","name":"OwnershipTransferred","inputs":[{"name":"previousOwner","type":"address","indexed":true,"internalType":"address"},{"name":"newOwner","type":"address","indexed":true,"internalType":"address"}],"anonymous":false}],"bytecode":{"object":"0x60c06040523480156200001157600080fd5b506040516200286138038062002861833981016040819052620000349162000289565b81816200004133620000bd565b60008211620000975760405162461bcd60e51b815260206004820152601960248201527f4d61782074726176657273616c206d757374206265203e20300000000000000060448201526064015b60405180910390fd5b6080829052620000a7816200010d565b505050506001600160a01b031660a052620003cc565b600080546001600160a01b038381166001600160a01b0319831681178455604051919092169283917f8be0079c531659141344cd1fd0a4f28419497f9722a3daafe3b4186f6b6457e09190a35050565b6200011762000169565b80516200012c906001906020840190620001c7565b507f53dcea6cd8a9fb42c53d0155aebceb09df1f90371ee9727c244f6557223bae16816040516200015e91906200037d565b60405180910390a150565b6000546001600160a01b03163314620001c55760405162461bcd60e51b815260206004820181905260248201527f4f776e61626c653a2063616c6c6572206973206e6f7420746865206f776e657260448201526064016200008e565b565b8280548282559060005260206000209081019282156200021f579160200282015b828111156200021f57825182546001600160a01b0319166001600160a01b03909116178255602090920191600190910190620001e8565b506200022d92915062000231565b5090565b5b808211156200022d576000815560010162000232565b6001600160a01b03811681146200025e57600080fd5b50565b634e487b7160e01b600052604160045260246000fd5b8051620002848162000248565b919050565b6000806000606084860312156200029f57600080fd5b8351620002ac8162000248565b60208581015160408701519295509350906001600160401b0380821115620002d357600080fd5b818701915087601f830112620002e857600080fd5b815181811115620002fd57620002fd62000261565b8060051b604051601f19603f8301168101818110858211171562000325576200032562000261565b60405291825284820192508381018501918a8311156200034457600080fd5b938501935b828510156200036d576200035d8562000277565b8452938501939285019262000349565b8096505050505050509250925092565b6020808252825182820181905260009190848201906040850190845b81811015620003c05783516001600160a01b03168352928401929184019160010162000399565b50909695505050505050565b60805160a05161245b62000406600039600081816101550152610231015260008181609e0152818161025601526102f8015261245b6000f3fe60806040523480156200001157600080fd5b5060043610620000935760003560e01c8063a9d140581162000062578063a9d140581462000121578063cda3c4991462000138578063f230b4c2146200014f578063f2fde38b146200017757600080fd5b80635878157614620000985780635c681d1e14620000d3578063715018a614620001035780638da5cb5b146200010f575b600080fd5b620000c07f000000000000000000000000000000000000000000000000000000000000000081565b6040519081526020015b60405180910390f35b620000ea620000e43660046200050a565b6200018e565b6040516001600160a01b039091168152602001620000ca565b6200010d620001b9565b005b6000546001600160a01b0316620000ea565b6200010d620001323660046200058b565b620001d1565b620000ea6200014936600462000645565b6200022d565b620000ea7f000000000000000000000000000000000000000000000000000000000000000081565b6200010d62000188366004620006f4565b6200034c565b600181815481106200019f57600080fd5b6000918252602090912001546001600160a01b0316905081565b620001c3620003cf565b620001cf60006200042b565b565b620001db620003cf565b8051620001f09060019060208401906200047b565b507f53dcea6cd8a9fb42c53d0155aebceb09df1f90371ee9727c244f6557223bae168160405162000222919062000719565b60405180910390a150565b60007f0000000000000000000000000000000000000000000000000000000000000000846001857f000000000000000000000000000000000000000000000000000000000000000086620002896000546001600160a01b031690565b6040516200029790620004e5565b620002a99796959493929190620007b3565b604051809103906000f080158015620002c6573d6000803e3d6000fd5b509050826001600160a01b038216337f5e826bc8ad243559fc75cc77b0e474a2ec85df26aeb5cd6db9d9ed1740f39afa7f00000000000000000000000000000000000000000000000000000000000000006200032a6000546001600160a01b031690565b60016040516200033d9392919062000850565b60405180910390a49392505050565b62000356620003cf565b6001600160a01b038116620003c15760405162461bcd60e51b815260206004820152602660248201527f4f776e61626c653a206e6577206f776e657220697320746865207a65726f206160448201526564647265737360d01b60648201526084015b60405180910390fd5b620003cc816200042b565b50565b6000546001600160a01b03163314620001cf5760405162461bcd60e51b815260206004820181905260248201527f4f776e61626c653a2063616c6c6572206973206e6f7420746865206f776e65726044820152606401620003b8565b600080546001600160a01b038381166001600160a01b0319831681178455604051919092169283917f8be0079c531659141344cd1fd0a4f28419497f9722a3daafe3b4186f6b6457e09190a35050565b828054828255906000526020600020908101928215620004d3579160200282015b82811115620004d357825182546001600160a01b0319166001600160a01b039091161782556020909201916001909101906200049c565b50620004e1929150620004f3565b5090565b611ba0806200088683390190565b5b80821115620004e15760008155600101620004f4565b6000602082840312156200051d57600080fd5b5035919050565b634e487b7160e01b600052604160045260246000fd5b604051601f8201601f1916810167ffffffffffffffff8111828210171562000566576200056662000524565b604052919050565b80356001600160a01b03811681146200058657600080fd5b919050565b600060208083850312156200059f57600080fd5b823567ffffffffffffffff80821115620005b857600080fd5b818501915085601f830112620005cd57600080fd5b813581811115620005e257620005e262000524565b8060051b9150620005f58483016200053a565b81815291830184019184810190888411156200061057600080fd5b938501935b83851015620006395762000629856200056e565b8252938501939085019062000615565b98975050505050505050565b6000806000606084860312156200065b57600080fd5b833567ffffffffffffffff808211156200067457600080fd5b818601915086601f8301126200068957600080fd5b8135602082821115620006a057620006a062000524565b620006b4601f8301601f191682016200053a565b92508183528881838601011115620006cb57600080fd5b818185018285013760009183018101919091529097908601359650604090950135949350505050565b6000602082840312156200070757600080fd5b62000712826200056e565b9392505050565b6020808252825182820181905260009190848201906040850190845b818110156200075c5783516001600160a01b03168352928401929184019160010162000735565b50909695505050505050565b6000815480845260208085019450836000528060002060005b83811015620007a85781546001600160a01b03168752958201956001918201910162000781565b509495945050505050565b60018060a01b03881681526000602060e08184015288518060e085015260005b81811015620007f2578a810183015185820161010001528201620007d3565b5061010091506000828286010152601f19601f8201168401905081848203016040850152620008248282018a62000768565b925050508560608301528460808301528360a08301526200063960c08301846001600160a01b03169052565b8381526001600160a01b03831660208201526060604082018190526000906200087c9083018462000768565b9594505050505056fe6101406040523480156200001257600080fd5b5060405162001ba038038062001ba0833981016040819052620000359162000588565b6012878786868987620000483362000303565b8381116200009d5760405162461bcd60e51b815260206004820152601d60248201527f4d617820616765206e6f742061626f7665206c6f636b2077696e646f7700000060448201526064015b60405180910390fd5b60008311620000ef5760405162461bcd60e51b815260206004820152601960248201527f4d61782074726176657273616c206d757374206265203e203000000000000000604482015260640162000094565b608084905260a083905260c081905260005b82518110156200014f576200013a838281518110620001245762000124620006a8565b602002602001015160016200035360201b60201c565b806200014681620006be565b91505062000101565b5060405184907f7232430c38d2db810b464dc9cd004f0e41528c6ba2eb1e2e4e3220ffd3a83a1b90600090a260405183907f9955b343f0b35bf4c2045c06550a8ec2d914db72d497a1430ca3526a248f20a590600090a260405181907f6777d8e4257e9f6a86d2f91b2b9fceaeb931d8b35249fbb63203c2dc0c08187090600090a250505050816001600160a01b031660e0816001600160a01b031681525050816001600160a01b031663313ce5676040518163ffffffff1660e01b8152600401602060405180830381865afa1580156200022e573d6000803e3d6000fd5b505050506040513d601f19601f82011682018060405250810190620002549190620006e6565b60ff16610100526003620002698282620007a1565b506101005160ff16826001600160a01b03167fb7ffc5864a1db85fbcfd710dabae631a2bafb39438fe25dfcb5687aea2a9ee2c6003604051620002ad91906200086d565b60405180910390a3505060ff81166101208190526040517f4e500e16c773a18df7642e2d86cfe357eab156473b38c34df4e15dffb895072690600090a250620002f68162000303565b5050505050505062000900565b600080546001600160a01b038381166001600160a01b0319831681178455604051919092169283917f8be0079c531659141344cd1fd0a4f28419497f9722a3daafe3b4186f6b6457e09190a35050565b6200035d62000423565b6001600160a01b03821660009081526002602052604090205481151560ff909116151503620003cf5760405162461bcd60e51b815260206004820152601460248201527f556e6c6f636b6572206e6f74206368616e676564000000000000000000000000604482015260640162000094565b6001600160a01b038216600081815260026020526040808220805460ff191685151590811790915590519092917f60209f49f531418079ff149eb1d71f100566dcaba03bf5a34930e08111df20c491a35050565b6000546001600160a01b031633146200047f5760405162461bcd60e51b815260206004820181905260248201527f4f776e61626c653a2063616c6c6572206973206e6f7420746865206f776e6572604482015260640162000094565b565b6001600160a01b03811681146200049757600080fd5b50565b634e487b7160e01b600052604160045260246000fd5b604051601f8201601f191681016001600160401b0381118282101715620004db57620004db6200049a565b604052919050565b8051620004f08162000481565b919050565b600082601f8301126200050757600080fd5b815160206001600160401b038211156200052557620005256200049a565b8160051b62000536828201620004b0565b92835284810182019282810190878511156200055157600080fd5b83870192505b848310156200057d5782516200056d8162000481565b8252918301919083019062000557565b979650505050505050565b600080600080600080600060e0888a031215620005a457600080fd5b8751620005b18162000481565b602089810151919850906001600160401b0380821115620005d157600080fd5b818b0191508b601f830112620005e657600080fd5b815181811115620005fb57620005fb6200049a565b6200060f601f8201601f19168501620004b0565b8181528d858386010111156200062457600080fd5b60005b828110156200064457848101860151828201870152850162000627565b5060009181019094015260408b0151929850808311156200066457600080fd5b5050620006748a828b01620004f5565b955050606088015193506080880151925060a088015191506200069a60c08901620004e3565b905092959891949750929550565b634e487b7160e01b600052603260045260246000fd5b600060018201620006df57634e487b7160e01b600052601160045260246000fd5b5060010190565b600060208284031215620006f957600080fd5b815160ff811681146200070b57600080fd5b9392505050565b600181811c908216806200072757607f821691505b6020821081036200074857634e487b7160e01b600052602260045260246000fd5b50919050565b601f8211156200079c57600081815260208120601f850160051c81016020861015620007775750805b601f850160051c820191505b81811015620007985782815560010162000783565b5050505b505050565b81516001600160401b03811115620007bd57620007bd6200049a565b620007d581620007ce845462000712565b846200074e565b602080601f8311600181146200080d5760008415620007f45750858301515b600019600386901b1c1916600185901b17855562000798565b600085815260208120601f198616915b828110156200083e578886015182559484019460019091019084016200081d565b50858210156200085d5787850151600019600388901b60f8161c191681555b5050505050600190811b01905550565b6000602080835260008454620008838162000712565b80848701526040600180841660008114620008a75760018114620008c257620008f2565b60ff1985168984015283151560051b890183019550620008f2565b896000528660002060005b85811015620008ea5781548b8201860152908301908801620008cd565b8a0184019650505b509398975050505050505050565b60805160a05160c05160e05161010051610120516112036200099d600039600081816101e4015281816105e501528181610660015261093c01526000818161057c01526106b301526000818161038a015281816104e501528181610ab10152610c6c01526000818161027b0152610b6d01526000818161031d015261042001526000818161022d015281816103ed01526108c601526112036000f3fe608060405234801561001057600080fd5b50600436106101585760003560e01c80638205bf6a116100c3578063d3fff0f61161007c578063d3fff0f61461035d578063d54db2c014610370578063dc46c1dd14610385578063f2fde38b146103ac578063f6e1d17a146103bf578063feaf968c146103d257600080fd5b80638205bf6a146102a75780638da5cb5b146102af5780639a6fc8f5146102d4578063a3c044761461031b578063a5c38b3d14610341578063cb53b08d1461034a57600080fd5b80633376f53a116101155780633376f53a1461022b5780633d6ba5781461025b57806350d25bcd146102715780636666d3721461018d578063687043c514610279578063715018a61461029f57600080fd5b80630125554b1461015d5780631386236414610185578063172b09f91461018f57806324a419f4146101c2578063313ce567146101df57806332c6534b14610218575b600080fd5b6101656103da565b604080519384526020840192909252908201526060015b60405180910390f35b61018d61044f565b005b6101b261019d366004610d50565b60026020526000908152604090205460ff1681565b604051901515815260200161017c565b6101ca6104dd565b6040805192835260208301919091520161017c565b6102067f000000000000000000000000000000000000000000000000000000000000000081565b60405160ff909116815260200161017c565b6101b2610226366004610d6b565b6105ab565b7f00000000000000000000000000000000000000000000000000000000000000005b60405190815260200161017c565b6101ca610269366004610d95565b506000908190565b61024d6105ce565b7f000000000000000000000000000000000000000000000000000000000000000061024d565b61018d610611565b61024d610623565b6000546001600160a01b03165b6040516001600160a01b03909116815260200161017c565b6102e76102e2366004610dc3565b610636565b604080516001600160501b03968716815260208101959095528401929092526060830152909116608082015260a00161017c565b7f000000000000000000000000000000000000000000000000000000000000000061024d565b61024d60015481565b610165610358366004610de0565b610697565b61018d61036b366004610e02565b6106e8565b6103786107ab565b60405161017c9190610e3e565b6102bc7f000000000000000000000000000000000000000000000000000000000000000081565b61018d6103ba366004610d50565b610839565b6101ca6103cd366004610d95565b6108b2565b6102e761090c565b600080600061044461041e60015461040f7f000000000000000000000000000000000000000000000000000000000000000090565b6104199042610ea2565b610974565b7f0000000000000000000000000000000000000000000000000000000000000000610697565b925092509250909192565b61045b336001546105ab565b6104ac5760405162461bcd60e51b815260206004820152601d60248201527f436f6e74726f6c6c657220626c6f636b65643a2063616e556e6c6f636b00000060448201526064015b60405180910390fd5b4260018190556040517f3ee2ed8fd57cf3bdf05ef91fbe207825c00ef41e2303a859c67a84cd46cd69aa90600090a2565b6000806000807f00000000000000000000000000000000000000000000000000000000000000006001600160a01b03166333f98c7760036040518263ffffffff1660e01b81526004016105309190610f93565b606060405180830381865afa15801561054d573d6000803e3d6000fd5b505050506040513d601f19601f820116820180604052508101906105719190610fa6565b92509250506105a2827f0000000000000000000000000000000000000000000000000000000000000000601261098c565b94909350915050565b6001600160a01b03821660009081526002602052604090205460ff165b92915050565b6000806105d96103da565b505090506106098160127f000000000000000000000000000000000000000000000000000000000000000061098c565b91505090565b565b6106196109fd565b61060f6000610a57565b60008061062e6103da565b509392505050565b6000806000806000806000610653886001600160501b03166108b2565b91509150876106848360127f000000000000000000000000000000000000000000000000000000000000000061098c565b9099909891975087965090945092505050565b60008060008060006106a98787610aa7565b915091506106d9827f0000000000000000000000000000000000000000000000000000000000000000601261098c565b97909650600195509350505050565b6106f06109fd565b6001600160a01b03821660009081526002602052604090205481151560ff9091161515036107575760405162461bcd60e51b8152602060048201526014602482015273155b9b1bd8dad95c881b9bdd0818da185b99d95960621b60448201526064016104a3565b6001600160a01b038216600081815260026020526040808220805460ff191685151590811790915590519092917f60209f49f531418079ff149eb1d71f100566dcaba03bf5a34930e08111df20c491a35050565b600380546107b890610eb5565b80601f01602080910402602001604051908101604052809291908181526020018280546107e490610eb5565b80156108315780601f1061080657610100808354040283529160200191610831565b820191906000526020600020905b81548152906001019060200180831161081457829003601f168201915b505050505081565b6108416109fd565b6001600160a01b0381166108a65760405162461bcd60e51b815260206004820152602660248201527f4f776e61626c653a206e6577206f776e657220697320746865207a65726f206160448201526564647265737360d01b60648201526084016104a3565b6108af81610a57565b50565b60015460009081908190819081906108ea907f000000000000000000000000000000000000000000000000000000000000000061040f565b90508082116108fe57509094909350915050565b506000958695509350505050565b6000806000806000806000806109206103da565b925092509250600061093182610bbe565b9050806109608560127f000000000000000000000000000000000000000000000000000000000000000061098c565b909a90995092975087965094509092505050565b60008183116109835781610985565b825b9392505050565b60008160ff168360ff16036109a2575082610985565b8160ff168360ff1610156109d6576109ba8383610fdd565b6109c590600a6110da565b6109cf90856110e9565b9050610985565b6109e08284610fdd565b6109eb90600a6110da565b6109f59085611119565b949350505050565b6000546001600160a01b0316331461060f5760405162461bcd60e51b815260206004820181905260248201527f4f776e61626c653a2063616c6c6572206973206e6f7420746865206f776e657260448201526064016104a3565b600080546001600160a01b038381166001600160a01b0319831681178455604051919092169283917f8be0079c531659141344cd1fd0a4f28419497f9722a3daafe3b4186f6b6457e09190a35050565b60008060008060007f00000000000000000000000000000000000000000000000000000000000000006001600160a01b03166333f98c7760036040518263ffffffff1660e01b8152600401610afc9190610f93565b606060405180830381865afa158015610b19573d6000803e3d6000fd5b505050506040513d601f19601f82011682018060405250810190610b3d9190610fa6565b925092509250868111610b56579093509150610bb79050565b600080610b6489868a610c2a565b91509150610b8f7f000000000000000000000000000000000000000000000000000000000000000090565b610b999042610ea2565b811115610bae579095509350610bb792505050565b50919450925050505b9250929050565b60006001600160501b03821115610c265760405162461bcd60e51b815260206004820152602660248201527f53616665436173743a2076616c756520646f65736e27742066697420696e203860448201526530206269747360d01b60648201526084016104a3565b5090565b600080808060015b85816001600160501b031611158015610c5d5750806001600160501b0316876001600160501b031610155b15610d25576001600160a01b037f000000000000000000000000000000000000000000000000000000000000000016636471a6806003610c9d848b611155565b6040518363ffffffff1660e01b8152600401610cba92919061117c565b606060405180830381865afa158015610cd7573d6000803e3d6000fd5b505050506040513d601f19601f82011682018060405250810190610cfb9190610fa6565b909450925050878211610d1357509092509050610d2c565b80610d1d816111a7565b915050610c32565b5090925090505b935093915050565b80356001600160a01b0381168114610d4b57600080fd5b919050565b600060208284031215610d6257600080fd5b61098582610d34565b60008060408385031215610d7e57600080fd5b610d8783610d34565b946020939093013593505050565b600060208284031215610da757600080fd5b5035919050565b6001600160501b03811681146108af57600080fd5b600060208284031215610dd557600080fd5b813561098581610dae565b60008060408385031215610df357600080fd5b50508035926020909101359150565b60008060408385031215610e1557600080fd5b610e1e83610d34565b915060208301358015158114610e3357600080fd5b809150509250929050565b600060208083528351808285015260005b81811015610e6b57858101830151858201604001528201610e4f565b506000604082860101526040601f19601f8301168501019250505092915050565b634e487b7160e01b600052601160045260246000fd5b818103818111156105c8576105c8610e8c565b600181811c90821680610ec957607f821691505b602082108103610ee957634e487b7160e01b600052602260045260246000fd5b50919050565b8054600090600181811c9080831680610f0957607f831692505b60208084108203610f2a57634e487b7160e01b600052602260045260246000fd5b83885260208801828015610f455760018114610f5b57610f86565b60ff198716825285151560051b82019750610f86565b60008981526020902060005b87811015610f8057815484820152908601908401610f67565b83019850505b5050505050505092915050565b6020815260006109856020830184610eef565b600080600060608486031215610fbb57600080fd5b8351610fc681610dae565b602085015160409095015190969495509392505050565b60ff82811682821603908111156105c8576105c8610e8c565b600181815b8085111561103157816000190482111561101757611017610e8c565b8085161561102457918102915b93841c9390800290610ffb565b509250929050565b600082611048575060016105c8565b81611055575060006105c8565b816001811461106b576002811461107557611091565b60019150506105c8565b60ff84111561108657611086610e8c565b50506001821b6105c8565b5060208310610133831016604e8410600b84101617156110b4575081810a6105c8565b6110be8383610ff6565b80600019048211156110d2576110d2610e8c565b029392505050565b600061098560ff841683611039565b80820260008212600160ff1b8414161561110557611105610e8c565b81810583148215176105c8576105c8610e8c565b60008261113657634e487b7160e01b600052601260045260246000fd5b600160ff1b82146000198414161561115057611150610e8c565b500590565b6001600160501b0382811682821603908082111561117557611175610e8c565b5092915050565b60408152600061118f6040830185610eef565b90506001600160501b03831660208301529392505050565b60006001600160501b038083168181036111c3576111c3610e8c565b600101939250505056fea2646970667358221220118ad657518d5c4a3385f25c97ea62cae7b6893002200743ee1886def38211d564736f6c63430008110033a26469706673582212200d1b11783969f3f8e9b08893f3025e4452bc5b3ad6521351d8572ce27093ac4e64736f6c63430008110033","linkReferences":{}},"methodIdentifiers":{"MAX_TRAVERSAL()":"58781576","SOURCE()":"f230b4c2","create(string,uint256,uint256)":"cda3c499","defaultUnlockers(uint256)":"5c681d1e","owner()":"8da5cb5b","renounceOwnership()":"715018a6","setDefaultUnlockers(address[])":"a9d14058","transferOwnership(address)":"f2fde38b"},"id":49}